{
  "contractName": "Prepublication",
  "abi": [
    {
      "constant": true,
      "inputs": [
        {
          "internalType": "uint256",
          "name": "",
          "type": "uint256"
        }
      ],
      "name": "documents",
      "outputs": [
        {
          "internalType": "uint256",
          "name": "timestamp",
          "type": "uint256"
        },
        {
          "internalType": "bytes32",
          "name": "hashValue",
          "type": "bytes32"
        },
        {
          "internalType": "address",
          "name": "author",
          "type": "address"
        }
      ],
      "payable": false,
      "stateMutability": "view",
      "type": "function"
    },
    {
      "constant": false,
      "inputs": [
        {
          "internalType": "bytes32",
          "name": "_hash",
          "type": "bytes32"
        }
      ],
      "name": "uploadDocument",
      "outputs": [
        {
          "internalType": "uint256",
          "name": "",
          "type": "uint256"
        }
      ],
      "payable": false,
      "stateMutability": "nonpayable",
      "type": "function"
    },
    {
      "constant": true,
      "inputs": [
        {
          "internalType": "bytes32",
          "name": "_hash",
          "type": "bytes32"
        }
      ],
      "name": "verifyDocument",
      "outputs": [
        {
          "components": [
            {
              "internalType": "uint256",
              "name": "timestamp",
              "type": "uint256"
            },
            {
              "internalType": "bytes32",
              "name": "hashValue",
              "type": "bytes32"
            },
            {
              "internalType": "address",
              "name": "author",
              "type": "address"
            }
          ],
          "internalType": "struct Prepublication.Document",
          "name": "",
          "type": "tuple"
        }
      ],
      "payable": false,
      "stateMutability": "view",
      "type": "function"
    },
    {
      "constant": true,
      "inputs": [
        {
          "internalType": "address",
          "name": "_author",
          "type": "address"
        }
      ],
      "name": "getAuthorDocuments",
      "outputs": [
        {
          "components": [
            {
              "internalType": "uint256",
              "name": "numBooks",
              "type": "uint256"
            },
            {
              "components": [
                {
                  "internalType": "uint256",
                  "name": "timestamp",
                  "type": "uint256"
                },
                {
                  "internalType": "bytes32",
                  "name": "hashValue",
                  "type": "bytes32"
                },
                {
                  "internalType": "address",
                  "name": "author",
                  "type": "address"
                }
              ],
              "internalType": "struct Prepublication.Document[]",
              "name": "docs",
              "type": "tuple[]"
            }
          ],
          "internalType": "struct Prepublication.Author",
          "name": "",
          "type": "tuple"
        }
      ],
      "payable": false,
      "stateMutability": "view",
      "type": "function"
    },
    {
      "constant": true,
      "inputs": [],
      "name": "getDocuments",
      "outputs": [
        {
          "components": [
            {
              "internalType": "uint256",
              "name": "timestamp",
              "type": "uint256"
            },
            {
              "internalType": "bytes32",
              "name": "hashValue",
              "type": "bytes32"
            },
            {
              "internalType": "address",
              "name": "author",
              "type": "address"
            }
          ],
          "internalType": "struct Prepublication.Document[]",
          "name": "",
          "type": "tuple[]"
        }
      ],
      "payable": false,
      "stateMutability": "view",
      "type": "function"
    },
    {
      "constant": true,
      "inputs": [],
      "name": "getAllAuthors",
      "outputs": [
        {
          "internalType": "address[]",
          "name": "",
          "type": "address[]"
        }
      ],
      "payable": false,
      "stateMutability": "view",
      "type": "function"
    }
  ],
  "bytecode": "0x608060405234801561001057600080fd5b50610dbc806100206000396000f3fe608060405234801561001057600080fd5b50600436106100625760003560e01c80632fa0e761146100675780635d7869e4146100975780636efb6355146100b5578063c2ed2b05146100e5578063ef2d870014610117578063fe35089f14610135575b600080fd5b610081600480360361007c9190810190610890565b610165565b60405161008e9190610bb4565b60405180910390f35b61009f61029c565b6040516100ac9190610b70565b60405180910390f35b6100cf60048036036100ca91908101906108b9565b61032a565b6040516100dc9190610bf1565b60405180910390f35b6100ff60048036036100fa91908101906108e2565b6105dd565b60405161010e93929190610c0c565b60405180910390f35b61011f610634565b60405161012c9190610b92565b60405180910390f35b61014f600480360361014a91908101906108b9565b6106fd565b60405161015c9190610bd6565b60405180910390f35b61016d6107fd565b6101756107fd565b6000808473ffffffffffffffffffffffffffffffffffffffff1673ffffffffffffffffffffffffffffffffffffffff1681526020019081526020016000206040518060400160405290816000820154815260200160018201805480602002602001604051908101604052809291908181526020016000905b82821015610289578382906000526020600020906003020160405180606001604052908160008201548152602001600182015481526020016002820160009054906101000a900473ffffffffffffffffffffffffffffffffffffffff1673ffffffffffffffffffffffffffffffffffffffff1673ffffffffffffffffffffffffffffffffffffffff1681525050815260200190600101906101ed565b5050505081525050905080915050919050565b6060600380548060200260200160405190810160405280929190818152602001828054801561032057602002820191906000526020600020905b8160009054906101000a900473ffffffffffffffffffffffffffffffffffffffff1673ffffffffffffffffffffffffffffffffffffffff16815260200190600101908083116102d6575b5050505050905090565b6000610335826107a0565b156103445761019190506105d8565b61034c610817565b60405180606001604052804281526020018481526020013373ffffffffffffffffffffffffffffffffffffffff16815250905060008060003373ffffffffffffffffffffffffffffffffffffffff1673ffffffffffffffffffffffffffffffffffffffff16815260200190815260200160002090506000816000015414156104355760033390806001815401808255809150509060018203906000526020600020016000909192909190916101000a81548173ffffffffffffffffffffffffffffffffffffffff021916908373ffffffffffffffffffffffffffffffffffffffff160217905550505b806001018290806001815401808255809150509060018203906000526020600020906003020160009091929091909150600082015181600001556020820151816001015560408201518160020160006101000a81548173ffffffffffffffffffffffffffffffffffffffff021916908373ffffffffffffffffffffffffffffffffffffffff160217905550505050806001018054905081600001819055508160016000868152602001908152602001600020600082015181600001556020820151816001015560408201518160020160006101000a81548173ffffffffffffffffffffffffffffffffffffffff021916908373ffffffffffffffffffffffffffffffffffffffff16021790555090505060028290806001815401808255809150509060018203906000526020600020906003020160009091929091909150600082015181600001556020820151816001015560408201518160020160006101000a81548173ffffffffffffffffffffffffffffffffffffffff021916908373ffffffffffffffffffffffffffffffffffffffff16021790555050505060c8925050505b919050565b600281815481106105ea57fe5b90600052602060002090600302016000915090508060000154908060010154908060020160009054906101000a900473ffffffffffffffffffffffffffffffffffffffff16905083565b60606002805480602002602001604051908101604052809291908181526020016000905b828210156106f4578382906000526020600020906003020160405180606001604052908160008201548152602001600182015481526020016002820160009054906101000a900473ffffffffffffffffffffffffffffffffffffffff1673ffffffffffffffffffffffffffffffffffffffff1673ffffffffffffffffffffffffffffffffffffffff168152505081526020019060010190610658565b50505050905090565b610705610817565b61070d610817565b6001600084815260200190815260200160002060405180606001604052908160008201548152602001600182015481526020016002820160009054906101000a900473ffffffffffffffffffffffffffffffffffffffff1673ffffffffffffffffffffffffffffffffffffffff1673ffffffffffffffffffffffffffffffffffffffff1681525050905080915050919050565b600080600090505b6002805490508110156107f25782600282815481106107c357fe5b90600052602060002090600302016001015414156107e55760019150506107f8565b80806001019150506107a8565b50600090505b919050565b604051806040016040528060008152602001606081525090565b60405180606001604052806000815260200160008019168152602001600073ffffffffffffffffffffffffffffffffffffffff1681525090565b60008135905061086081610d34565b92915050565b60008135905061087581610d4b565b92915050565b60008135905061088a81610d62565b92915050565b6000602082840312156108a257600080fd5b60006108b084828501610851565b91505092915050565b6000602082840312156108cb57600080fd5b60006108d984828501610866565b91505092915050565b6000602082840312156108f457600080fd5b60006109028482850161087b565b91505092915050565b6000610917838361093b565b60208301905092915050565b600061092f8383610b10565b60608301905092915050565b61094481610cee565b82525050565b61095381610cee565b82525050565b600061096482610c73565b61096e8185610cbb565b935061097983610c43565b8060005b838110156109aa578151610991888261090b565b975061099c83610c94565b92505060018101905061097d565b5085935050505092915050565b60006109c282610c89565b6109cc8185610cdd565b93506109d783610c63565b8060005b83811015610a085781516109ef8882610923565b97506109fa83610cae565b9250506001810190506109db565b5085935050505092915050565b6000610a2082610c7e565b610a2a8185610ccc565b9350610a3583610c53565b8060005b83811015610a66578151610a4d8882610923565b9750610a5883610ca1565b925050600181019050610a39565b5085935050505092915050565b610a7c81610d00565b82525050565b610a8b81610d00565b82525050565b6000604083016000830151610aa96000860182610b52565b5060208301518482036020860152610ac18282610a15565b9150508091505092915050565b606082016000820151610ae46000850182610b52565b506020820151610af76020850182610a73565b506040820151610b0a604085018261093b565b50505050565b606082016000820151610b266000850182610b52565b506020820151610b396020850182610a73565b506040820151610b4c604085018261093b565b50505050565b610b5b81610d2a565b82525050565b610b6a81610d2a565b82525050565b60006020820190508181036000830152610b8a8184610959565b905092915050565b60006020820190508181036000830152610bac81846109b7565b905092915050565b60006020820190508181036000830152610bce8184610a91565b905092915050565b6000606082019050610beb6000830184610ace565b92915050565b6000602082019050610c066000830184610b61565b92915050565b6000606082019050610c216000830186610b61565b610c2e6020830185610a82565b610c3b604083018461094a565b949350505050565b6000819050602082019050919050565b6000819050602082019050919050565b6000819050602082019050919050565b600081519050919050565b600081519050919050565b600081519050919050565b6000602082019050919050565b6000602082019050919050565b6000602082019050919050565b600082825260208201905092915050565b600082825260208201905092915050565b600082825260208201905092915050565b6000610cf982610d0a565b9050919050565b6000819050919050565b600073ffffffffffffffffffffffffffffffffffffffff82169050919050565b6000819050919050565b610d3d81610cee565b8114610d4857600080fd5b50565b610d5481610d00565b8114610d5f57600080fd5b50565b610d6b81610d2a565b8114610d7657600080fd5b5056fea365627a7a7231582054be4a525fe902bb45ff38dfef05b7debb12ae0ff44e1659ecf44d856b282f526c6578706572696d656e74616cf564736f6c63430005100040",
  "source": "// SPDX-License-Identifier: MIT\r\n\r\npragma solidity >=0.4.22 <0.9.0;\r\npragma experimental ABIEncoderV2;\r\n\r\ncontract Prepublication {\r\n    struct Document {\r\n        uint256 timestamp;\r\n        bytes32 hashValue;\r\n        address author;\r\n    }\r\n\r\n    struct Author {\r\n        uint numBooks;\r\n        Document[] docs;\r\n    }\r\n\r\n    mapping(address => Author) private authorDocs;\r\n    mapping(bytes32 => Document) private hashOfDocument;\r\n\r\n    Document[] public documents;\r\n    address[] private authorKeys;\r\n\r\n    function uploadDocument(bytes32 _hash) public returns(uint) {\r\n        if(testIfExist(_hash)) {\r\n            return 401;\r\n        }\r\n        Document memory newDocument = Document({\r\n            author: msg.sender,\r\n            hashValue: _hash,\r\n            timestamp: block.timestamp\r\n        });\r\n\r\n        Author storage author = authorDocs[msg.sender];\r\n\r\n        if (author.numBooks == 0) {\r\n            authorKeys.push(msg.sender);\r\n        }\r\n\r\n        author.docs.push(newDocument);\r\n        author.numBooks = author.docs.length;\r\n\r\n        hashOfDocument[_hash]=newDocument;\r\n\r\n        documents.push(newDocument);\r\n        return 200;\r\n    }\r\n\r\n    function verifyDocument(bytes32 _hash) public view returns (Document memory) {\r\n        Document memory doc = hashOfDocument[_hash];\r\n        return doc;\r\n    }\r\n\r\n    function getAuthorDocuments(address _author) public view returns (Author memory) {\r\n        Author memory auth = authorDocs[_author];\r\n        return auth;\r\n    }\r\n\r\n    function getDocuments() public view returns (Document[] memory) {\r\n        return documents;\r\n    }\r\n\r\n    function getAllAuthors() public view returns (address[] memory) {\r\n        return authorKeys;\r\n    }\r\n\r\n    function testIfExist(bytes32 _hash) private view returns (bool) {\r\n        for(uint i = 0; i<documents.length; i++) {\r\n            if (documents[i].hashValue == _hash) {\r\n                return true;\r\n            }\r\n        }\r\n        return false;\r\n    }\r\n\r\n}",
  "sourcePath": "C:\\Users\\Admin\\Documents\\Ecole\\Alternance\\Année 3\\DA51\\TP\\TP07\\prepublication\\contracts\\Prepublication.sol",
  "compiler": {
    "name": "solc",
    "version": "0.5.16+commit.9c3226ce.Emscripten.clang"
  },
  "schemaVersion": "3.4.16",
  "updatedAt": "2023-11-22T11:19:16.317Z",
  "networkType": "ethereum",
  "devdoc": {
    "methods": {}
  },
  "userdoc": {
    "methods": {}
  }
}